{
  "transactions": [
    {
      "hash": "0x64d660c211ea6b4560e9476e67977bb7f31ec7c53e0189eaa6aeaac12da88b1f",
      "transactionType": "CALL",
      "contractName": null,
      "contractAddress": "0x779877A7B0D9E8603169DdbD7836e478b4624789",
      "function": "transferAndCall(address,uint256,bytes)",
      "arguments": [
        "0x8103B0A8A00be2DDC778e6e7eaa21791Cd364625",
        "3000000000000000000",
        "0x00000000000000000000000000000000000000000000000000000000000029c2"
      ],
      "transaction": {
        "type": "0x02",
        "from": "0x9531367e9927609ead2b29cd53fde90329fff87e",
        "to": "0x779877a7b0d9e8603169ddbd7836e478b4624789",
        "gas": "0x1b43f",
        "value": "0x0",
        "data": "0x4000aea00000000000000000000000008103b0a8a00be2ddc778e6e7eaa21791cd36462500000000000000000000000000000000000000000000000029a2241af62c00000000000000000000000000000000000000000000000000000000000000000060000000000000000000000000000000000000000000000000000000000000002000000000000000000000000000000000000000000000000000000000000029c2",
        "nonce": "0x8",
        "accessList": []
      },
      "additionalContracts": [],
      "isFixedGasLimit": false
    }
  ],
  "receipts": [
    {
      "transactionHash": "0x64d660c211ea6b4560e9476e67977bb7f31ec7c53e0189eaa6aeaac12da88b1f",
      "transactionIndex": "0x4",
      "blockHash": "0x143c0dd88e721fddcba195128fe5ffcd8005b1bae807f6022cdc329d71200e86",
      "blockNumber": "0x55ca17",
      "from": "0x9531367e9927609ead2B29Cd53fde90329Fff87E",
      "to": "0x779877A7B0D9E8603169DdbD7836e478b4624789",
      "cumulativeGasUsed": "0x56f5d",
      "gasUsed": "0x12a4a",
      "contractAddress": null,
      "logs": [
        {
          "address": "0x779877A7B0D9E8603169DdbD7836e478b4624789",
          "topics": [
            "0xddf252ad1be2c89b69c2b068fc378daa952ba7f163c4a11628f55a4df523b3ef",
            "0x0000000000000000000000009531367e9927609ead2b29cd53fde90329fff87e",
            "0x0000000000000000000000008103b0a8a00be2ddc778e6e7eaa21791cd364625"
          ],
          "data": "0x00000000000000000000000000000000000000000000000029a2241af62c0000",
          "blockHash": "0x143c0dd88e721fddcba195128fe5ffcd8005b1bae807f6022cdc329d71200e86",
          "blockNumber": "0x55ca17",
          "transactionHash": "0x64d660c211ea6b4560e9476e67977bb7f31ec7c53e0189eaa6aeaac12da88b1f",
          "transactionIndex": "0x4",
          "logIndex": "0x4",
          "removed": false
        },
        {
          "address": "0x779877A7B0D9E8603169DdbD7836e478b4624789",
          "topics": [
            "0xe19260aff97b920c7df27010903aeb9c8d2be5d310a2c67824cf3f15396e4c16",
            "0x0000000000000000000000009531367e9927609ead2b29cd53fde90329fff87e",
            "0x0000000000000000000000008103b0a8a00be2ddc778e6e7eaa21791cd364625"
          ],
          "data": "0x00000000000000000000000000000000000000000000000029a2241af62c00000000000000000000000000000000000000000000000000000000000000000040000000000000000000000000000000000000000000000000000000000000002000000000000000000000000000000000000000000000000000000000000029c2",
          "blockHash": "0x143c0dd88e721fddcba195128fe5ffcd8005b1bae807f6022cdc329d71200e86",
          "blockNumber": "0x55ca17",
          "transactionHash": "0x64d660c211ea6b4560e9476e67977bb7f31ec7c53e0189eaa6aeaac12da88b1f",
          "transactionIndex": "0x4",
          "logIndex": "0x5",
          "removed": false
        },
        {
          "address": "0x8103B0A8A00be2DDC778e6e7eaa21791Cd364625",
          "topics": [
            "0xd39ec07f4e209f627a4c427971473820dc129761ba28de8906bd56f57101d4f8",
            "0x00000000000000000000000000000000000000000000000000000000000029c2"
          ],
          "data": "0x000000000000000000000000000000000000000000000000000000000000000000000000000000000000000000000000000000000000000029a2241af62c0000",
          "blockHash": "0x143c0dd88e721fddcba195128fe5ffcd8005b1bae807f6022cdc329d71200e86",
          "blockNumber": "0x55ca17",
          "transactionHash": "0x64d660c211ea6b4560e9476e67977bb7f31ec7c53e0189eaa6aeaac12da88b1f",
          "transactionIndex": "0x4",
          "logIndex": "0x6",
          "removed": false
        }
      ],
      "status": "0x1",
      "logsBloom": "0x0000001400000004080020000000000000000000000000020000000002000000000000000100800000000001000000000000000000000000000000000000000000000000000000000000000800000000000000000000000000002000000000000000000000000000000000000000000000000000400000000000001000000000000000000c000020000000000000800010000020000000000000000000000000000000000000000000000000000000000000000000000000000400000000000000000002000000000000000000000000000000000000000100000000000000000000000000000000000000000000000000000000000000000000000000000000",
      "type": "0x2",
      "effectiveGasPrice": "0xe957082b"
    }
  ],
  "libraries": [],
  "pending": [],
  "returns": {},
  "timestamp": 1712168633,
  "chain": 11155111,
  "commit": "7b0b8dc"
}